{
  "_format": "hh-sol-artifact-1",
  "contractName": "PrivyFlowRouter",
  "sourceName": "src/PrivyFlowRouter.sol",
  "abi": [
    {
      "inputs": [
        {
          "internalType": "address",
          "name": "_usdc",
          "type": "address"
        },
        {
          "internalType": "address",
          "name": "_treasury",
          "type": "address"
        },
        {
          "internalType": "uint256",
          "name": "_feeBps",
          "type": "uint256"
        }
      ],
      "stateMutability": "nonpayable",
      "type": "constructor"
    },
    {
      "inputs": [
        {
          "internalType": "address",
          "name": "owner",
          "type": "address"
        }
      ],
      "name": "OwnableInvalidOwner",
      "type": "error"
    },
    {
      "inputs": [
        {
          "internalType": "address",
          "name": "account",
          "type": "address"
        }
      ],
      "name": "OwnableUnauthorizedAccount",
      "type": "error"
    },
    {
      "inputs": [],
      "name": "ReentrancyGuardReentrantCall",
      "type": "error"
    },
    {
      "inputs": [
        {
          "internalType": "address",
          "name": "token",
          "type": "address"
        }
      ],
      "name": "SafeERC20FailedOperation",
      "type": "error"
    },
    {
      "anonymous": false,
      "inputs": [
        {
          "indexed": false,
          "internalType": "uint256",
          "name": "newFeeBps",
          "type": "uint256"
        }
      ],
      "name": "FeeUpdated",
      "type": "event"
    },
    {
      "anonymous": false,
      "inputs": [
        {
          "indexed": true,
          "internalType": "address",
          "name": "previousOwner",
          "type": "address"
        },
        {
          "indexed": true,
          "internalType": "address",
          "name": "newOwner",
          "type": "address"
        }
      ],
      "name": "OwnershipTransferred",
      "type": "event"
    },
    {
      "anonymous": false,
      "inputs": [
        {
          "indexed": true,
          "internalType": "address",
          "name": "sender",
          "type": "address"
        },
        {
          "indexed": true,
          "internalType": "address",
          "name": "recipient",
          "type": "address"
        },
        {
          "indexed": false,
          "internalType": "address",
          "name": "asset",
          "type": "address"
        },
        {
          "indexed": false,
          "internalType": "uint256",
          "name": "amount",
          "type": "uint256"
        },
        {
          "indexed": false,
          "internalType": "uint256",
          "name": "fee",
          "type": "uint256"
        },
        {
          "indexed": false,
          "internalType": "string",
          "name": "routeId",
          "type": "string"
        }
      ],
      "name": "PaymentSent",
      "type": "event"
    },
    {
      "anonymous": false,
      "inputs": [
        {
          "indexed": false,
          "internalType": "address",
          "name": "newTreasury",
          "type": "address"
        }
      ],
      "name": "TreasuryUpdated",
      "type": "event"
    },
    {
      "inputs": [],
      "name": "feeBps",
      "outputs": [
        {
          "internalType": "uint256",
          "name": "",
          "type": "uint256"
        }
      ],
      "stateMutability": "view",
      "type": "function"
    },
    {
      "inputs": [],
      "name": "owner",
      "outputs": [
        {
          "internalType": "address",
          "name": "",
          "type": "address"
        }
      ],
      "stateMutability": "view",
      "type": "function"
    },
    {
      "inputs": [],
      "name": "renounceOwnership",
      "outputs": [],
      "stateMutability": "nonpayable",
      "type": "function"
    },
    {
      "inputs": [
        {
          "internalType": "address",
          "name": "recipient",
          "type": "address"
        },
        {
          "internalType": "uint256",
          "name": "amount",
          "type": "uint256"
        },
        {
          "internalType": "string",
          "name": "routeId",
          "type": "string"
        }
      ],
      "name": "sendPayment",
      "outputs": [],
      "stateMutability": "nonpayable",
      "type": "function"
    },
    {
      "inputs": [
        {
          "internalType": "uint256",
          "name": "_feeBps",
          "type": "uint256"
        }
      ],
      "name": "setFeeBps",
      "outputs": [],
      "stateMutability": "nonpayable",
      "type": "function"
    },
    {
      "inputs": [
        {
          "internalType": "address",
          "name": "_treasury",
          "type": "address"
        }
      ],
      "name": "setTreasury",
      "outputs": [],
      "stateMutability": "nonpayable",
      "type": "function"
    },
    {
      "inputs": [
        {
          "internalType": "address",
          "name": "newOwner",
          "type": "address"
        }
      ],
      "name": "transferOwnership",
      "outputs": [],
      "stateMutability": "nonpayable",
      "type": "function"
    },
    {
      "inputs": [],
      "name": "treasury",
      "outputs": [
        {
          "internalType": "address",
          "name": "",
          "type": "address"
        }
      ],
      "stateMutability": "view",
      "type": "function"
    },
    {
      "inputs": [],
      "name": "usdc",
      "outputs": [
        {
          "internalType": "contract IERC20",
          "name": "",
          "type": "address"
        }
      ],
      "stateMutability": "view",
      "type": "function"
    }
  ],
  "bytecode": "0x60a060405234801561001057600080fd5b506040516113de3803806113de8339818101604052810190610032919061029d565b33600073ffffffffffffffffffffffffffffffffffffffff168173ffffffffffffffffffffffffffffffffffffffff16036100a55760006040517f1e4fbdf700000000000000000000000000000000000000000000000000000000815260040161009c91906102ff565b60405180910390fd5b6100b48161014060201b60201c565b50600180819055508273ffffffffffffffffffffffffffffffffffffffff1660808173ffffffffffffffffffffffffffffffffffffffff168152505081600260006101000a81548173ffffffffffffffffffffffffffffffffffffffff021916908373ffffffffffffffffffffffffffffffffffffffff1602179055508060038190555050505061031a565b60008060009054906101000a900473ffffffffffffffffffffffffffffffffffffffff169050816000806101000a81548173ffffffffffffffffffffffffffffffffffffffff021916908373ffffffffffffffffffffffffffffffffffffffff1602179055508173ffffffffffffffffffffffffffffffffffffffff168173ffffffffffffffffffffffffffffffffffffffff167f8be0079c531659141344cd1fd0a4f28419497f9722a3daafe3b4186f6b6457e060405160405180910390a35050565b600080fd5b600073ffffffffffffffffffffffffffffffffffffffff82169050919050565b600061023482610209565b9050919050565b61024481610229565b811461024f57600080fd5b50565b6000815190506102618161023b565b92915050565b6000819050919050565b61027a81610267565b811461028557600080fd5b50565b60008151905061029781610271565b92915050565b6000806000606084860312156102b6576102b5610204565b5b60006102c486828701610252565b93505060206102d586828701610252565b92505060406102e686828701610288565b9150509250925092565b6102f981610229565b82525050565b600060208201905061031460008301846102f0565b92915050565b60805161108d61035160003960008181610192015281816102a50152818161031c0152818161036801526103fd015261108d6000f3fe608060405234801561001057600080fd5b50600436106100935760003560e01c8063715018a611610066578063715018a61461010e57806372c27b62146101185780638da5cb5b14610134578063f0f4426014610152578063f2fde38b1461016e57610093565b806324a9d853146100985780633e413bee146100b657806344d6dcae146100d457806361d027b3146100f0575b600080fd5b6100a061018a565b6040516100ad9190610a10565b60405180910390f35b6100be610190565b6040516100cb9190610aaa565b60405180910390f35b6100ee60048036038101906100e99190610b9e565b6101b4565b005b6100f8610449565b6040516101059190610c21565b60405180910390f35b61011661046f565b005b610132600480360381019061012d9190610c3c565b610483565b005b61013c610511565b6040516101499190610c21565b60405180910390f35b61016c60048036038101906101679190610c69565b61053a565b005b61018860048036038101906101839190610c69565b61062c565b005b60035481565b7f000000000000000000000000000000000000000000000000000000000000000081565b6101bc6106b2565b600083116101ff576040517f08c379a00000000000000000000000000000000000000000000000000000000081526004016101f690610cf3565b60405180910390fd5b600073ffffffffffffffffffffffffffffffffffffffff168473ffffffffffffffffffffffffffffffffffffffff160361026e576040517f08c379a000000000000000000000000000000000000000000000000000000000815260040161026590610d5f565b60405180910390fd5b6000612710600354856102819190610dae565b61028b9190610e1f565b90506000818561029b9190610e50565b90506102ea3330877f000000000000000000000000000000000000000000000000000000000000000073ffffffffffffffffffffffffffffffffffffffff166106f8909392919063ffffffff16565b600082111561036157610360600260009054906101000a900473ffffffffffffffffffffffffffffffffffffffff16837f000000000000000000000000000000000000000000000000000000000000000073ffffffffffffffffffffffffffffffffffffffff1661077a9092919063ffffffff16565b5b6103ac86827f000000000000000000000000000000000000000000000000000000000000000073ffffffffffffffffffffffffffffffffffffffff1661077a9092919063ffffffff16565b8573ffffffffffffffffffffffffffffffffffffffff163373ffffffffffffffffffffffffffffffffffffffff167f29cac15b1eb2e1a151c972c66cb9761236c3b7aa320ccedf6afafa2c3329b9707f000000000000000000000000000000000000000000000000000000000000000084868989604051610431959493929190610ed1565b60405180910390a350506104436107f9565b50505050565b600260009054906101000a900473ffffffffffffffffffffffffffffffffffffffff1681565b610477610802565b6104816000610889565b565b61048b610802565b6101f48111156104d0576040517f08c379a00000000000000000000000000000000000000000000000000000000081526004016104c790610f6b565b60405180910390fd5b806003819055507f8c4d35e54a3f2ef1134138fd8ea3daee6a3c89e10d2665996babdf70261e2c76816040516105069190610a10565b60405180910390a150565b60008060009054906101000a900473ffffffffffffffffffffffffffffffffffffffff16905090565b610542610802565b600073ffffffffffffffffffffffffffffffffffffffff168173ffffffffffffffffffffffffffffffffffffffff16036105b1576040517f08c379a00000000000000000000000000000000000000000000000000000000081526004016105a890610fd7565b60405180910390fd5b80600260006101000a81548173ffffffffffffffffffffffffffffffffffffffff021916908373ffffffffffffffffffffffffffffffffffffffff1602179055507f7dae230f18360d76a040c81f050aa14eb9d6dc7901b20fc5d855e2a20fe814d1816040516106219190610c21565b60405180910390a150565b610634610802565b600073ffffffffffffffffffffffffffffffffffffffff168173ffffffffffffffffffffffffffffffffffffffff16036106a65760006040517f1e4fbdf700000000000000000000000000000000000000000000000000000000815260040161069d9190610c21565b60405180910390fd5b6106af81610889565b50565b6002600154036106ee576040517f3ee5aeb500000000000000000000000000000000000000000000000000000000815260040160405180910390fd5b6002600181905550565b610774848573ffffffffffffffffffffffffffffffffffffffff166323b872dd86868660405160240161072d93929190610ff7565b604051602081830303815290604052915060e01b6020820180517bffffffffffffffffffffffffffffffffffffffffffffffffffffffff838183161783525050505061094d565b50505050565b6107f4838473ffffffffffffffffffffffffffffffffffffffff1663a9059cbb85856040516024016107ad92919061102e565b604051602081830303815290604052915060e01b6020820180517bffffffffffffffffffffffffffffffffffffffffffffffffffffffff838183161783525050505061094d565b505050565b60018081905550565b61080a6109ef565b73ffffffffffffffffffffffffffffffffffffffff16610828610511565b73ffffffffffffffffffffffffffffffffffffffff16146108875761084b6109ef565b6040517f118cdaa700000000000000000000000000000000000000000000000000000000815260040161087e9190610c21565b60405180910390fd5b565b60008060009054906101000a900473ffffffffffffffffffffffffffffffffffffffff169050816000806101000a81548173ffffffffffffffffffffffffffffffffffffffff021916908373ffffffffffffffffffffffffffffffffffffffff1602179055508173ffffffffffffffffffffffffffffffffffffffff168173ffffffffffffffffffffffffffffffffffffffff167f8be0079c531659141344cd1fd0a4f28419497f9722a3daafe3b4186f6b6457e060405160405180910390a35050565b600080602060008451602086016000885af180610970576040513d6000823e3d81fd5b3d92506000519150506000821461098b5760018114156109a7565b60008473ffffffffffffffffffffffffffffffffffffffff163b145b156109e957836040517f5274afe70000000000000000000000000000000000000000000000000000000081526004016109e09190610c21565b60405180910390fd5b50505050565b600033905090565b6000819050919050565b610a0a816109f7565b82525050565b6000602082019050610a256000830184610a01565b92915050565b600073ffffffffffffffffffffffffffffffffffffffff82169050919050565b6000819050919050565b6000610a70610a6b610a6684610a2b565b610a4b565b610a2b565b9050919050565b6000610a8282610a55565b9050919050565b6000610a9482610a77565b9050919050565b610aa481610a89565b82525050565b6000602082019050610abf6000830184610a9b565b92915050565b600080fd5b600080fd5b6000610ada82610a2b565b9050919050565b610aea81610acf565b8114610af557600080fd5b50565b600081359050610b0781610ae1565b92915050565b610b16816109f7565b8114610b2157600080fd5b50565b600081359050610b3381610b0d565b92915050565b600080fd5b600080fd5b600080fd5b60008083601f840112610b5e57610b5d610b39565b5b8235905067ffffffffffffffff811115610b7b57610b7a610b3e565b5b602083019150836001820283011115610b9757610b96610b43565b5b9250929050565b60008060008060608587031215610bb857610bb7610ac5565b5b6000610bc687828801610af8565b9450506020610bd787828801610b24565b935050604085013567ffffffffffffffff811115610bf857610bf7610aca565b5b610c0487828801610b48565b925092505092959194509250565b610c1b81610acf565b82525050565b6000602082019050610c366000830184610c12565b92915050565b600060208284031215610c5257610c51610ac5565b5b6000610c6084828501610b24565b91505092915050565b600060208284031215610c7f57610c7e610ac5565b5b6000610c8d84828501610af8565b91505092915050565b600082825260208201905092915050565b7f416d6f756e74206d757374206265203e20300000000000000000000000000000600082015250565b6000610cdd601283610c96565b9150610ce882610ca7565b602082019050919050565b60006020820190508181036000830152610d0c81610cd0565b9050919050565b7f496e76616c696420726563697069656e74000000000000000000000000000000600082015250565b6000610d49601183610c96565b9150610d5482610d13565b602082019050919050565b60006020820190508181036000830152610d7881610d3c565b9050919050565b7f4e487b7100000000000000000000000000000000000000000000000000000000600052601160045260246000fd5b6000610db9826109f7565b9150610dc4836109f7565b9250828202610dd2816109f7565b91508282048414831517610de957610de8610d7f565b5b5092915050565b7f4e487b7100000000000000000000000000000000000000000000000000000000600052601260045260246000fd5b6000610e2a826109f7565b9150610e35836109f7565b925082610e4557610e44610df0565b5b828204905092915050565b6000610e5b826109f7565b9150610e66836109f7565b9250828203905081811115610e7e57610e7d610d7f565b5b92915050565b82818337600083830152505050565b6000601f19601f8301169050919050565b6000610eb08385610c96565b9350610ebd838584610e84565b610ec683610e93565b840190509392505050565b6000608082019050610ee66000830188610c12565b610ef36020830187610a01565b610f006040830186610a01565b8181036060830152610f13818486610ea4565b90509695505050505050565b7f46656520746f6f20686967680000000000000000000000000000000000000000600082015250565b6000610f55600c83610c96565b9150610f6082610f1f565b602082019050919050565b60006020820190508181036000830152610f8481610f48565b9050919050565b7f496e76616c696420747265617375727900000000000000000000000000000000600082015250565b6000610fc1601083610c96565b9150610fcc82610f8b565b602082019050919050565b60006020820190508181036000830152610ff081610fb4565b9050919050565b600060608201905061100c6000830186610c12565b6110196020830185610c12565b6110266040830184610a01565b949350505050565b60006040820190506110436000830185610c12565b6110506020830184610a01565b939250505056fea264697066735822122024c6dbb4b73a582bf319a03329de847430f3fac9b73d8f5f1c147a21fbf2035864736f6c634300081b0033",
  "linkReferences": {},
  "deployedLinkReferences": {}
}