{
  "_format": "hh-sol-artifact-1",
  "contractName": "PrivyFlowTieredLimits",
  "sourceName": "src/PrivyFlowTieredLimits.sol",
  "abi": [
    {
      "inputs": [
        {
          "internalType": "address",
          "name": "_verifier",
          "type": "address"
        },
        {
          "internalType": "uint256",
          "name": "_humanityRequestId",
          "type": "uint256"
        },
        {
          "internalType": "uint256",
          "name": "_ageRequestId",
          "type": "uint256"
        },
        {
          "internalType": "uint256",
          "name": "_countryRequestId",
          "type": "uint256"
        }
      ],
      "stateMutability": "nonpayable",
      "type": "constructor"
    },
    {
      "inputs": [
        {
          "internalType": "address",
          "name": "owner",
          "type": "address"
        }
      ],
      "name": "OwnableInvalidOwner",
      "type": "error"
    },
    {
      "inputs": [
        {
          "internalType": "address",
          "name": "account",
          "type": "address"
        }
      ],
      "name": "OwnableUnauthorizedAccount",
      "type": "error"
    },
    {
      "anonymous": false,
      "inputs": [
        {
          "indexed": true,
          "internalType": "uint256",
          "name": "countryCode",
          "type": "uint256"
        },
        {
          "indexed": false,
          "internalType": "bool",
          "name": "sanctioned",
          "type": "bool"
        }
      ],
      "name": "CountrySanctioned",
      "type": "event"
    },
    {
      "anonymous": false,
      "inputs": [
        {
          "indexed": true,
          "internalType": "address",
          "name": "user",
          "type": "address"
        },
        {
          "indexed": false,
          "internalType": "uint256",
          "name": "amount",
          "type": "uint256"
        },
        {
          "indexed": false,
          "internalType": "uint256",
          "name": "remaining",
          "type": "uint256"
        }
      ],
      "name": "DailyLimitUsed",
      "type": "event"
    },
    {
      "anonymous": false,
      "inputs": [
        {
          "indexed": true,
          "internalType": "address",
          "name": "user",
          "type": "address"
        },
        {
          "indexed": false,
          "internalType": "uint8",
          "name": "tier",
          "type": "uint8"
        }
      ],
      "name": "ManualTierSet",
      "type": "event"
    },
    {
      "anonymous": false,
      "inputs": [
        {
          "indexed": true,
          "internalType": "address",
          "name": "previousOwner",
          "type": "address"
        },
        {
          "indexed": true,
          "internalType": "address",
          "name": "newOwner",
          "type": "address"
        }
      ],
      "name": "OwnershipTransferred",
      "type": "event"
    },
    {
      "anonymous": false,
      "inputs": [
        {
          "indexed": false,
          "internalType": "uint256",
          "name": "humanity",
          "type": "uint256"
        },
        {
          "indexed": false,
          "internalType": "uint256",
          "name": "age",
          "type": "uint256"
        },
        {
          "indexed": false,
          "internalType": "uint256",
          "name": "country",
          "type": "uint256"
        }
      ],
      "name": "RequestIdsUpdated",
      "type": "event"
    },
    {
      "anonymous": false,
      "inputs": [
        {
          "indexed": true,
          "internalType": "address",
          "name": "user",
          "type": "address"
        },
        {
          "indexed": false,
          "internalType": "uint8",
          "name": "tier",
          "type": "uint8"
        },
        {
          "indexed": false,
          "internalType": "uint256",
          "name": "limit",
          "type": "uint256"
        }
      ],
      "name": "TierCalculated",
      "type": "event"
    },
    {
      "anonymous": false,
      "inputs": [
        {
          "indexed": true,
          "internalType": "address",
          "name": "newVerifier",
          "type": "address"
        }
      ],
      "name": "VerifierUpdated",
      "type": "event"
    },
    {
      "inputs": [],
      "name": "TIER_0_LIMIT",
      "outputs": [
        {
          "internalType": "uint256",
          "name": "",
          "type": "uint256"
        }
      ],
      "stateMutability": "view",
      "type": "function"
    },
    {
      "inputs": [],
      "name": "TIER_1_LIMIT",
      "outputs": [
        {
          "internalType": "uint256",
          "name": "",
          "type": "uint256"
        }
      ],
      "stateMutability": "view",
      "type": "function"
    },
    {
      "inputs": [],
      "name": "TIER_2_LIMIT",
      "outputs": [
        {
          "internalType": "uint256",
          "name": "",
          "type": "uint256"
        }
      ],
      "stateMutability": "view",
      "type": "function"
    },
    {
      "inputs": [],
      "name": "TIER_3_LIMIT",
      "outputs": [
        {
          "internalType": "uint256",
          "name": "",
          "type": "uint256"
        }
      ],
      "stateMutability": "view",
      "type": "function"
    },
    {
      "inputs": [],
      "name": "ageRequestId",
      "outputs": [
        {
          "internalType": "uint256",
          "name": "",
          "type": "uint256"
        }
      ],
      "stateMutability": "view",
      "type": "function"
    },
    {
      "inputs": [
        {
          "internalType": "address",
          "name": "user",
          "type": "address"
        },
        {
          "internalType": "uint256",
          "name": "amount",
          "type": "uint256"
        }
      ],
      "name": "checkLimit",
      "outputs": [
        {
          "internalType": "bool",
          "name": "",
          "type": "bool"
        }
      ],
      "stateMutability": "view",
      "type": "function"
    },
    {
      "inputs": [],
      "name": "countryRequestId",
      "outputs": [
        {
          "internalType": "uint256",
          "name": "",
          "type": "uint256"
        }
      ],
      "stateMutability": "view",
      "type": "function"
    },
    {
      "inputs": [
        {
          "internalType": "address",
          "name": "",
          "type": "address"
        }
      ],
      "name": "dailyUsage",
      "outputs": [
        {
          "internalType": "uint256",
          "name": "amount",
          "type": "uint256"
        },
        {
          "internalType": "uint256",
          "name": "lastResetTime",
          "type": "uint256"
        }
      ],
      "stateMutability": "view",
      "type": "function"
    },
    {
      "inputs": [
        {
          "internalType": "address",
          "name": "user",
          "type": "address"
        }
      ],
      "name": "getDailyLimit",
      "outputs": [
        {
          "internalType": "uint256",
          "name": "",
          "type": "uint256"
        }
      ],
      "stateMutability": "view",
      "type": "function"
    },
    {
      "inputs": [
        {
          "internalType": "address",
          "name": "user",
          "type": "address"
        }
      ],
      "name": "getIdentityStatus",
      "outputs": [
        {
          "internalType": "uint8",
          "name": "tier",
          "type": "uint8"
        },
        {
          "internalType": "uint256",
          "name": "dailyLimit",
          "type": "uint256"
        },
        {
          "internalType": "uint256",
          "name": "dailyUsed",
          "type": "uint256"
        },
        {
          "internalType": "uint256",
          "name": "dailyRemaining",
          "type": "uint256"
        },
        {
          "internalType": "bool",
          "name": "humanVerified",
          "type": "bool"
        },
        {
          "internalType": "bool",
          "name": "ageVerified",
          "type": "bool"
        },
        {
          "internalType": "bool",
          "name": "countryVerified",
          "type": "bool"
        },
        {
          "internalType": "bool",
          "name": "hasOverride",
          "type": "bool"
        }
      ],
      "stateMutability": "view",
      "type": "function"
    },
    {
      "inputs": [
        {
          "internalType": "address",
          "name": "user",
          "type": "address"
        }
      ],
      "name": "getMissingVerifications",
      "outputs": [
        {
          "internalType": "bool",
          "name": "needsHumanity",
          "type": "bool"
        },
        {
          "internalType": "bool",
          "name": "needsAge",
          "type": "bool"
        },
        {
          "internalType": "bool",
          "name": "needsCountry",
          "type": "bool"
        }
      ],
      "stateMutability": "view",
      "type": "function"
    },
    {
      "inputs": [
        {
          "internalType": "address",
          "name": "user",
          "type": "address"
        }
      ],
      "name": "getRemainingDailyLimit",
      "outputs": [
        {
          "internalType": "uint256",
          "name": "",
          "type": "uint256"
        }
      ],
      "stateMutability": "view",
      "type": "function"
    },
    {
      "inputs": [],
      "name": "getTierRequirements",
      "outputs": [
        {
          "internalType": "string",
          "name": "tier0Desc",
          "type": "string"
        },
        {
          "internalType": "string",
          "name": "tier1Desc",
          "type": "string"
        },
        {
          "internalType": "string",
          "name": "tier2Desc",
          "type": "string"
        },
        {
          "internalType": "string",
          "name": "tier3Desc",
          "type": "string"
        }
      ],
      "stateMutability": "pure",
      "type": "function"
    },
    {
      "inputs": [
        {
          "internalType": "address",
          "name": "user",
          "type": "address"
        }
      ],
      "name": "getUserTier",
      "outputs": [
        {
          "internalType": "uint8",
          "name": "",
          "type": "uint8"
        }
      ],
      "stateMutability": "view",
      "type": "function"
    },
    {
      "inputs": [
        {
          "internalType": "address",
          "name": "user",
          "type": "address"
        }
      ],
      "name": "hasCountryProof",
      "outputs": [
        {
          "internalType": "bool",
          "name": "",
          "type": "bool"
        }
      ],
      "stateMutability": "view",
      "type": "function"
    },
    {
      "inputs": [
        {
          "internalType": "address",
          "name": "",
          "type": "address"
        }
      ],
      "name": "hasManualOverride",
      "outputs": [
        {
          "internalType": "bool",
          "name": "",
          "type": "bool"
        }
      ],
      "stateMutability": "view",
      "type": "function"
    },
    {
      "inputs": [],
      "name": "humanityRequestId",
      "outputs": [
        {
          "internalType": "uint256",
          "name": "",
          "type": "uint256"
        }
      ],
      "stateMutability": "view",
      "type": "function"
    },
    {
      "inputs": [
        {
          "internalType": "address",
          "name": "user",
          "type": "address"
        }
      ],
      "name": "isAdult",
      "outputs": [
        {
          "internalType": "bool",
          "name": "",
          "type": "bool"
        }
      ],
      "stateMutability": "view",
      "type": "function"
    },
    {
      "inputs": [
        {
          "internalType": "address",
          "name": "user",
          "type": "address"
        }
      ],
      "name": "isHuman",
      "outputs": [
        {
          "internalType": "bool",
          "name": "",
          "type": "bool"
        }
      ],
      "stateMutability": "view",
      "type": "function"
    },
    {
      "inputs": [
        {
          "internalType": "address",
          "name": "",
          "type": "address"
        }
      ],
      "name": "manualTierOverrides",
      "outputs": [
        {
          "internalType": "uint8",
          "name": "",
          "type": "uint8"
        }
      ],
      "stateMutability": "view",
      "type": "function"
    },
    {
      "inputs": [],
      "name": "owner",
      "outputs": [
        {
          "internalType": "address",
          "name": "",
          "type": "address"
        }
      ],
      "stateMutability": "view",
      "type": "function"
    },
    {
      "inputs": [
        {
          "internalType": "address",
          "name": "user",
          "type": "address"
        },
        {
          "internalType": "uint256",
          "name": "amount",
          "type": "uint256"
        }
      ],
      "name": "recordUsage",
      "outputs": [],
      "stateMutability": "nonpayable",
      "type": "function"
    },
    {
      "inputs": [
        {
          "internalType": "address",
          "name": "user",
          "type": "address"
        }
      ],
      "name": "removeManualTier",
      "outputs": [],
      "stateMutability": "nonpayable",
      "type": "function"
    },
    {
      "inputs": [],
      "name": "renounceOwnership",
      "outputs": [],
      "stateMutability": "nonpayable",
      "type": "function"
    },
    {
      "inputs": [
        {
          "internalType": "uint256",
          "name": "",
          "type": "uint256"
        }
      ],
      "name": "sanctionedCountries",
      "outputs": [
        {
          "internalType": "bool",
          "name": "",
          "type": "bool"
        }
      ],
      "stateMutability": "view",
      "type": "function"
    },
    {
      "inputs": [
        {
          "internalType": "address",
          "name": "user",
          "type": "address"
        },
        {
          "internalType": "uint8",
          "name": "tier",
          "type": "uint8"
        }
      ],
      "name": "setManualTier",
      "outputs": [],
      "stateMutability": "nonpayable",
      "type": "function"
    },
    {
      "inputs": [
        {
          "internalType": "uint256",
          "name": "_humanityRequestId",
          "type": "uint256"
        },
        {
          "internalType": "uint256",
          "name": "_ageRequestId",
          "type": "uint256"
        },
        {
          "internalType": "uint256",
          "name": "_countryRequestId",
          "type": "uint256"
        }
      ],
      "name": "setRequestIds",
      "outputs": [],
      "stateMutability": "nonpayable",
      "type": "function"
    },
    {
      "inputs": [
        {
          "internalType": "uint256",
          "name": "countryCode",
          "type": "uint256"
        },
        {
          "internalType": "bool",
          "name": "sanctioned",
          "type": "bool"
        }
      ],
      "name": "setSanctionedCountry",
      "outputs": [],
      "stateMutability": "nonpayable",
      "type": "function"
    },
    {
      "inputs": [
        {
          "internalType": "address",
          "name": "_verifier",
          "type": "address"
        }
      ],
      "name": "setVerifier",
      "outputs": [],
      "stateMutability": "nonpayable",
      "type": "function"
    },
    {
      "inputs": [
        {
          "internalType": "address",
          "name": "newOwner",
          "type": "address"
        }
      ],
      "name": "transferOwnership",
      "outputs": [],
      "stateMutability": "nonpayable",
      "type": "function"
    },
    {
      "inputs": [],
      "name": "universalVerifier",
      "outputs": [
        {
          "internalType": "contract IVerifier",
          "name": "",
          "type": "address"
        }
      ],
      "stateMutability": "view",
      "type": "function"
    }
  ],
  "bytecode": "0x608060405234801561001057600080fd5b506040516121c63803806121c683398181016040528101906100329190610271565b33600073ffffffffffffffffffffffffffffffffffffffff168173ffffffffffffffffffffffffffffffffffffffff16036100a55760006040517f1e4fbdf700000000000000000000000000000000000000000000000000000000815260040161009c91906102e7565b60405180910390fd5b6100b48161011460201b60201c565b5083600160006101000a81548173ffffffffffffffffffffffffffffffffffffffff021916908373ffffffffffffffffffffffffffffffffffffffff16021790555082600281905550816003819055508060048190555050505050610302565b60008060009054906101000a900473ffffffffffffffffffffffffffffffffffffffff169050816000806101000a81548173ffffffffffffffffffffffffffffffffffffffff021916908373ffffffffffffffffffffffffffffffffffffffff1602179055508173ffffffffffffffffffffffffffffffffffffffff168173ffffffffffffffffffffffffffffffffffffffff167f8be0079c531659141344cd1fd0a4f28419497f9722a3daafe3b4186f6b6457e060405160405180910390a35050565b600080fd5b600073ffffffffffffffffffffffffffffffffffffffff82169050919050565b6000610208826101dd565b9050919050565b610218816101fd565b811461022357600080fd5b50565b6000815190506102358161020f565b92915050565b6000819050919050565b61024e8161023b565b811461025957600080fd5b50565b60008151905061026b81610245565b92915050565b6000806000806080858703121561028b5761028a6101d8565b5b600061029987828801610226565b94505060206102aa8782880161025c565b93505060406102bb8782880161025c565b92505060606102cc8782880161025c565b91505092959194509250565b6102e1816101fd565b82525050565b60006020820190506102fc60008301846102d8565b92915050565b611eb5806103116000396000f3fe608060405234801561001057600080fd5b50600436106101e45760003560e01c806370c293141161010f578063d323c896116100a2578063ec37d25911610071578063ec37d259146105c6578063f2fde38b146105f6578063f644cf0d14610612578063f72c436f14610630576101e4565b8063d323c89614610515578063d806bd0814610536578063e4d2620e14610566578063eb13ec8614610596576101e4565b806391a6432a116100de57806391a6432a1461048b5780639bd38366146104a9578063aae30271146104d9578063b4d7019a146104f7576101e4565b806370c2931414610416578063715018a61461044757806379184c76146104515780638da5cb5b1461046d576101e4565b8063589fe01d11610187578063671095d011610156578063671095d01461037a578063691d832f146103985780636dd458f9146103c85780636f340485146103e6576101e4565b8063589fe01d146102cc57806358f2ef17146102fe5780635bc073351461032e5780635be38fc01461035e576101e4565b80633ca1ed0c116101c35780633ca1ed0c1461025a5780635437988d14610276578063547f31ca1461029257806358971c99146102ae576101e4565b8062b69167146101e95780630ae192fc1461020557806327b4c62714610223575b600080fd5b61020360048036038101906101fe91906116d3565b610660565b005b61020d6106cf565b60405161021a9190611722565b60405180910390f35b61023d6004803603810190610238919061179b565b6106d5565b6040516102519897969594939291906117f3565b60405180910390f35b610274600480360381019061026f919061189d565b6107eb565b005b610290600480360381019061028b919061179b565b61093c565b005b6102ac60048036038101906102a7919061179b565b6109cb565b005b6102b6610a2e565b6040516102c39190611722565b60405180910390f35b6102e660048036038101906102e1919061179b565b610a36565b6040516102f5939291906118dd565b60405180910390f35b6103186004803603810190610313919061179b565b610a90565b6040516103259190611722565b60405180910390f35b6103486004803603810190610343919061179b565b610b11565b6040516103559190611914565b60405180910390f35b6103786004803603810190610373919061192f565b610c19565b005b610382610de4565b60405161038f9190611722565b60405180910390f35b6103b260048036038101906103ad919061179b565b610ded565b6040516103bf9190611914565b60405180910390f35b6103d0610e0d565b6040516103dd91906119ce565b60405180910390f35b61040060048036038101906103fb91906119e9565b610e33565b60405161040d9190611914565b60405180910390f35b610430600480360381019061042b919061179b565b610e53565b60405161043e929190611a16565b60405180910390f35b61044f610e77565b005b61046b60048036038101906104669190611a3f565b610e8b565b005b610475610ee8565b6040516104829190611aa1565b60405180910390f35b610493610f11565b6040516104a09190611722565b60405180910390f35b6104c360048036038101906104be919061192f565b610f17565b6040516104d09190611914565b60405180910390f35b6104e1610f2d565b6040516104ee9190611722565b60405180910390f35b6104ff610f51565b60405161050c9190611722565b60405180910390f35b61051d610f57565b60405161052d9493929190611b4c565b60405180910390f35b610550600480360381019061054b919061179b565b610fcf565b60405161055d9190611bad565b60405180910390f35b610580600480360381019061057b919061179b565b610fef565b60405161058d9190611bad565b60405180910390f35b6105b060048036038101906105ab919061179b565b61117b565b6040516105bd9190611914565b60405180910390f35b6105e060048036038101906105db919061179b565b611283565b6040516105ed9190611722565b60405180910390f35b610610600480360381019061060b919061179b565b611377565b005b61061a6113fd565b6040516106279190611722565b60405180910390f35b61064a6004803603810190610645919061179b565b611405565b6040516106579190611914565b60405180910390f35b61066861150d565b806006600084815260200190815260200160002060006101000a81548160ff021916908315150217905550817f34bd652b7cd0ba477a8de5f11b9c10da24ba904ada8bfdd87f1bf4df035e1d5a826040516106c39190611914565b60405180910390a25050565b60035481565b6000806000806000806000806106ea89610fef565b97506106f589610a90565b96506000600560008b73ffffffffffffffffffffffffffffffffffffffff1673ffffffffffffffffffffffffffffffffffffffff168152602001908152602001600020905062015180816001015461074d9190611bf7565b421061075c5760009650610764565b806000015496505b61076d8a611283565b95506107788a611405565b94506107838a61117b565b935061078e8a610b11565b9250600860008b73ffffffffffffffffffffffffffffffffffffffff1673ffffffffffffffffffffffffffffffffffffffff16815260200190815260200160002060009054906101000a900460ff16915050919395975091939597565b6107f361150d565b60038160ff16111561083a576040517f08c379a000000000000000000000000000000000000000000000000000000000815260040161083190611c77565b60405180910390fd5b80600760008473ffffffffffffffffffffffffffffffffffffffff1673ffffffffffffffffffffffffffffffffffffffff16815260200190815260200160002060006101000a81548160ff021916908360ff1602179055506001600860008473ffffffffffffffffffffffffffffffffffffffff1673ffffffffffffffffffffffffffffffffffffffff16815260200190815260200160002060006101000a81548160ff0219169083151502179055508173ffffffffffffffffffffffffffffffffffffffff167f3259431a5f73b9d50f3e1570a19734755710830358c2c629044be8eb349341f0826040516109309190611bad565b60405180910390a25050565b61094461150d565b80600160006101000a81548173ffffffffffffffffffffffffffffffffffffffff021916908373ffffffffffffffffffffffffffffffffffffffff1602179055508073ffffffffffffffffffffffffffffffffffffffff167fd24015cc99cc1700cafca3042840a1d8ac1e3964fd2e0e37ea29c654056ee32760405160405180910390a250565b6109d361150d565b6000600860008373ffffffffffffffffffffffffffffffffffffffff1673ffffffffffffffffffffffffffffffffffffffff16815260200190815260200160002060006101000a81548160ff02191690831515021790555050565b6305f5e10081565b600080600080610a4585610fef565b905060038160ff1610610a6357600080600093509350935050610a89565b610a6c85611405565b159350610a788561117b565b159250610a8485610b11565b159150505b9193909250565b600080610a9c83610fef565b905060038160ff1603610ad2577fffffffffffffffffffffffffffffffffffffffffffffffffffffffffffffffff915050610b0c565b60028160ff1603610aeb576402540be400915050610b0c565b60018160ff1603610b0357633b9aca00915050610b0c565b6305f5e1009150505b919050565b60008073ffffffffffffffffffffffffffffffffffffffff16600160009054906101000a900473ffffffffffffffffffffffffffffffffffffffff1673ffffffffffffffffffffffffffffffffffffffff1603610b715760009050610c14565b600160009054906101000a900473ffffffffffffffffffffffffffffffffffffffff1673ffffffffffffffffffffffffffffffffffffffff1663e8555603836004546040518363ffffffff1660e01b8152600401610bd0929190611c97565b602060405180830381865afa158015610bed573d6000803e3d6000fd5b505050506040513d601f19601f82011682018060405250810190610c119190611cd5565b90505b919050565b6000610c2483610a90565b90506000600560008573ffffffffffffffffffffffffffffffffffffffff1673ffffffffffffffffffffffffffffffffffffffff1681526020019081526020016000209050620151808160010154610c7c9190611bf7565b4210610c9657600081600001819055504281600101819055505b7fffffffffffffffffffffffffffffffffffffffffffffffffffffffffffffffff8214610d105781838260000154610cce9190611bf7565b1115610d0f576040517f08c379a0000000000000000000000000000000000000000000000000000000008152600401610d0690611d4e565b60405180910390fd5b5b82816000016000828254610d249190611bf7565b9250508190555060007fffffffffffffffffffffffffffffffffffffffffffffffffffffffffffffffff8314610d6957816000015483610d649190611d6e565b610d8b565b7fffffffffffffffffffffffffffffffffffffffffffffffffffffffffffffffff5b90508473ffffffffffffffffffffffffffffffffffffffff167fabc70ce6e70c132bb63dbbd3691f31b663beb27c8dcc8943fea85c7c0521bcec8583604051610dd5929190611a16565b60405180910390a25050505050565b6402540be40081565b60086020528060005260406000206000915054906101000a900460ff1681565b600160009054906101000a900473ffffffffffffffffffffffffffffffffffffffff1681565b60066020528060005260406000206000915054906101000a900460ff1681565b60056020528060005260406000206000915090508060000154908060010154905082565b610e7f61150d565b610e896000611594565b565b610e9361150d565b8260028190555081600381905550806004819055507fec964bcfc251c8257ac7d81c59c083522ebc438702629334d5f5865e94142cef838383604051610edb93929190611da2565b60405180910390a1505050565b60008060009054906101000a900473ffffffffffffffffffffffffffffffffffffffff16905090565b60025481565b600081610f2384611283565b1015905092915050565b7fffffffffffffffffffffffffffffffffffffffffffffffffffffffffffffffff81565b60045481565b606080606080604051806060016040528060298152602001611e2e602991399350604051806060016040528060298152602001611e576029913992506040518060600160405280602a8152602001611e04602a913991506040518060600160405280602a8152602001611dda602a9139905090919293565b60076020528060005260406000206000915054906101000a900460ff1681565b6000600860008373ffffffffffffffffffffffffffffffffffffffff1673ffffffffffffffffffffffffffffffffffffffff16815260200190815260200160002060009054906101000a900460ff161561109757600760008373ffffffffffffffffffffffffffffffffffffffff1673ffffffffffffffffffffffffffffffffffffffff16815260200190815260200160002060009054906101000a900460ff169050611176565b600073ffffffffffffffffffffffffffffffffffffffff16600160009054906101000a900473ffffffffffffffffffffffffffffffffffffffff1673ffffffffffffffffffffffffffffffffffffffff16036110f65760009050611176565b600061110183611405565b9050600061110e8461117b565b9050600061111b85610b11565b90508280156111275750815b80156111305750805b156111415760039350505050611176565b81801561114b5750805b1561115c5760029350505050611176565b821561116e5760019350505050611176565b600093505050505b919050565b60008073ffffffffffffffffffffffffffffffffffffffff16600160009054906101000a900473ffffffffffffffffffffffffffffffffffffffff1673ffffffffffffffffffffffffffffffffffffffff16036111db576000905061127e565b600160009054906101000a900473ffffffffffffffffffffffffffffffffffffffff1673ffffffffffffffffffffffffffffffffffffffff1663e8555603836003546040518363ffffffff1660e01b815260040161123a929190611c97565b602060405180830381865afa158015611257573d6000803e3d6000fd5b505050506040513d601f19601f8201168201806040525081019061127b9190611cd5565b90505b919050565b60008061128f83610a90565b90507fffffffffffffffffffffffffffffffffffffffffffffffffffffffffffffffff81036112e1577fffffffffffffffffffffffffffffffffffffffffffffffffffffffffffffffff915050611372565b6000600560008573ffffffffffffffffffffffffffffffffffffffff1673ffffffffffffffffffffffffffffffffffffffff16815260200190815260200160002090506201518081600101546113379190611bf7565b4210611347578192505050611372565b8181600001541061135d57600092505050611372565b80600001548261136d9190611d6e565b925050505b919050565b61137f61150d565b600073ffffffffffffffffffffffffffffffffffffffff168173ffffffffffffffffffffffffffffffffffffffff16036113f15760006040517f1e4fbdf70000000000000000000000000000000000000000000000000000000081526004016113e89190611aa1565b60405180910390fd5b6113fa81611594565b50565b633b9aca0081565b60008073ffffffffffffffffffffffffffffffffffffffff16600160009054906101000a900473ffffffffffffffffffffffffffffffffffffffff1673ffffffffffffffffffffffffffffffffffffffff16036114655760009050611508565b600160009054906101000a900473ffffffffffffffffffffffffffffffffffffffff1673ffffffffffffffffffffffffffffffffffffffff1663e8555603836002546040518363ffffffff1660e01b81526004016114c4929190611c97565b602060405180830381865afa1580156114e1573d6000803e3d6000fd5b505050506040513d601f19601f820116820180604052508101906115059190611cd5565b90505b919050565b611515611658565b73ffffffffffffffffffffffffffffffffffffffff16611533610ee8565b73ffffffffffffffffffffffffffffffffffffffff161461159257611556611658565b6040517f118cdaa70000000000000000000000000000000000000000000000000000000081526004016115899190611aa1565b60405180910390fd5b565b60008060009054906101000a900473ffffffffffffffffffffffffffffffffffffffff169050816000806101000a81548173ffffffffffffffffffffffffffffffffffffffff021916908373ffffffffffffffffffffffffffffffffffffffff1602179055508173ffffffffffffffffffffffffffffffffffffffff168173ffffffffffffffffffffffffffffffffffffffff167f8be0079c531659141344cd1fd0a4f28419497f9722a3daafe3b4186f6b6457e060405160405180910390a35050565b600033905090565b600080fd5b6000819050919050565b61167881611665565b811461168357600080fd5b50565b6000813590506116958161166f565b92915050565b60008115159050919050565b6116b08161169b565b81146116bb57600080fd5b50565b6000813590506116cd816116a7565b92915050565b600080604083850312156116ea576116e9611660565b5b60006116f885828601611686565b9250506020611709858286016116be565b9150509250929050565b61171c81611665565b82525050565b60006020820190506117376000830184611713565b92915050565b600073ffffffffffffffffffffffffffffffffffffffff82169050919050565b60006117688261173d565b9050919050565b6117788161175d565b811461178357600080fd5b50565b6000813590506117958161176f565b92915050565b6000602082840312156117b1576117b0611660565b5b60006117bf84828501611786565b91505092915050565b600060ff82169050919050565b6117de816117c8565b82525050565b6117ed8161169b565b82525050565b600061010082019050611809600083018b6117d5565b611816602083018a611713565b6118236040830189611713565b6118306060830188611713565b61183d60808301876117e4565b61184a60a08301866117e4565b61185760c08301856117e4565b61186460e08301846117e4565b9998505050505050505050565b61187a816117c8565b811461188557600080fd5b50565b60008135905061189781611871565b92915050565b600080604083850312156118b4576118b3611660565b5b60006118c285828601611786565b92505060206118d385828601611888565b9150509250929050565b60006060820190506118f260008301866117e4565b6118ff60208301856117e4565b61190c60408301846117e4565b949350505050565b600060208201905061192960008301846117e4565b92915050565b6000806040838503121561194657611945611660565b5b600061195485828601611786565b925050602061196585828601611686565b9150509250929050565b6000819050919050565b600061199461198f61198a8461173d565b61196f565b61173d565b9050919050565b60006119a682611979565b9050919050565b60006119b88261199b565b9050919050565b6119c8816119ad565b82525050565b60006020820190506119e360008301846119bf565b92915050565b6000602082840312156119ff576119fe611660565b5b6000611a0d84828501611686565b91505092915050565b6000604082019050611a2b6000830185611713565b611a386020830184611713565b9392505050565b600080600060608486031215611a5857611a57611660565b5b6000611a6686828701611686565b9350506020611a7786828701611686565b9250506040611a8886828701611686565b9150509250925092565b611a9b8161175d565b82525050565b6000602082019050611ab66000830184611a92565b92915050565b600081519050919050565b600082825260208201905092915050565b60005b83811015611af6578082015181840152602081019050611adb565b60008484015250505050565b6000601f19601f8301169050919050565b6000611b1e82611abc565b611b288185611ac7565b9350611b38818560208601611ad8565b611b4181611b02565b840191505092915050565b60006080820190508181036000830152611b668187611b13565b90508181036020830152611b7a8186611b13565b90508181036040830152611b8e8185611b13565b90508181036060830152611ba28184611b13565b905095945050505050565b6000602082019050611bc260008301846117d5565b92915050565b7f4e487b7100000000000000000000000000000000000000000000000000000000600052601160045260246000fd5b6000611c0282611665565b9150611c0d83611665565b9250828201905080821115611c2557611c24611bc8565b5b92915050565b7f496e76616c696420746965720000000000000000000000000000000000000000600082015250565b6000611c61600c83611ac7565b9150611c6c82611c2b565b602082019050919050565b60006020820190508181036000830152611c9081611c54565b9050919050565b6000604082019050611cac6000830185611a92565b611cb96020830184611713565b9392505050565b600081519050611ccf816116a7565b92915050565b600060208284031215611ceb57611cea611660565b5b6000611cf984828501611cc0565b91505092915050565b7f4461696c79206c696d6974206578636565646564000000000000000000000000600082015250565b6000611d38601483611ac7565b9150611d4382611d02565b602082019050919050565b60006020820190508181036000830152611d6781611d2b565b9050919050565b6000611d7982611665565b9150611d8483611665565b9250828203905081811115611d9c57611d9b611bc8565b5b92915050565b6000606082019050611db76000830186611713565b611dc46020830185611713565b611dd16040830184611713565b94935050505056fe46756c6c20766572696669636174696f6e202d20556e6c696d69746564207472616e73616374696f6e73416765202b20436f756e747279207665726966696564202d202431302c3030302f646179206c696d69744e6f20766572696669636174696f6e207265717569726564202d20243130302f646179206c696d69744c6976656e6573732070726f6f66202868756d616e29202d2024312c3030302f646179206c696d6974a26469706673582212206aeb8328d138261cb34ec881bf23cbf170cb45560561d342ba6e012e4afb896a64736f6c634300081b0033",
  "linkReferences": {},
  "deployedLinkReferences": {}
}