{
  "_format": "hh-sol-artifact-1",
  "contractName": "PrivyFlowPaymentAgent",
  "sourceName": "src/PrivyFlowPaymentAgent.sol",
  "abi": [
    {
      "inputs": [
        {
          "internalType": "address",
          "name": "_treasury",
          "type": "address"
        },
        {
          "internalType": "uint256",
          "name": "_feeBps",
          "type": "uint256"
        }
      ],
      "stateMutability": "nonpayable",
      "type": "constructor"
    },
    {
      "inputs": [],
      "name": "ECDSAInvalidSignature",
      "type": "error"
    },
    {
      "inputs": [
        {
          "internalType": "uint256",
          "name": "length",
          "type": "uint256"
        }
      ],
      "name": "ECDSAInvalidSignatureLength",
      "type": "error"
    },
    {
      "inputs": [
        {
          "internalType": "bytes32",
          "name": "s",
          "type": "bytes32"
        }
      ],
      "name": "ECDSAInvalidSignatureS",
      "type": "error"
    },
    {
      "inputs": [
        {
          "internalType": "address",
          "name": "owner",
          "type": "address"
        }
      ],
      "name": "OwnableInvalidOwner",
      "type": "error"
    },
    {
      "inputs": [
        {
          "internalType": "address",
          "name": "account",
          "type": "address"
        }
      ],
      "name": "OwnableUnauthorizedAccount",
      "type": "error"
    },
    {
      "inputs": [],
      "name": "ReentrancyGuardReentrantCall",
      "type": "error"
    },
    {
      "inputs": [
        {
          "internalType": "address",
          "name": "token",
          "type": "address"
        }
      ],
      "name": "SafeERC20FailedOperation",
      "type": "error"
    },
    {
      "anonymous": false,
      "inputs": [
        {
          "indexed": true,
          "internalType": "address",
          "name": "owner",
          "type": "address"
        },
        {
          "indexed": true,
          "internalType": "address",
          "name": "agent",
          "type": "address"
        },
        {
          "indexed": false,
          "internalType": "uint256",
          "name": "maxAmountPerTx",
          "type": "uint256"
        },
        {
          "indexed": false,
          "internalType": "uint256",
          "name": "maxDailyAmount",
          "type": "uint256"
        },
        {
          "indexed": false,
          "internalType": "uint256",
          "name": "expiresAt",
          "type": "uint256"
        }
      ],
      "name": "AgentCreated",
      "type": "event"
    },
    {
      "anonymous": false,
      "inputs": [
        {
          "indexed": true,
          "internalType": "address",
          "name": "owner",
          "type": "address"
        },
        {
          "indexed": true,
          "internalType": "address",
          "name": "agent",
          "type": "address"
        },
        {
          "indexed": true,
          "internalType": "address",
          "name": "recipient",
          "type": "address"
        },
        {
          "indexed": false,
          "internalType": "address",
          "name": "token",
          "type": "address"
        },
        {
          "indexed": false,
          "internalType": "uint256",
          "name": "amount",
          "type": "uint256"
        },
        {
          "indexed": false,
          "internalType": "string",
          "name": "memo",
          "type": "string"
        }
      ],
      "name": "AgentPaymentExecuted",
      "type": "event"
    },
    {
      "anonymous": false,
      "inputs": [
        {
          "indexed": true,
          "internalType": "address",
          "name": "owner",
          "type": "address"
        },
        {
          "indexed": true,
          "internalType": "address",
          "name": "agent",
          "type": "address"
        }
      ],
      "name": "AgentPolicyUpdated",
      "type": "event"
    },
    {
      "anonymous": false,
      "inputs": [
        {
          "indexed": true,
          "internalType": "address",
          "name": "owner",
          "type": "address"
        },
        {
          "indexed": true,
          "internalType": "address",
          "name": "agent",
          "type": "address"
        }
      ],
      "name": "AgentRevoked",
      "type": "event"
    },
    {
      "anonymous": false,
      "inputs": [
        {
          "indexed": true,
          "internalType": "address",
          "name": "previousOwner",
          "type": "address"
        },
        {
          "indexed": true,
          "internalType": "address",
          "name": "newOwner",
          "type": "address"
        }
      ],
      "name": "OwnershipTransferred",
      "type": "event"
    },
    {
      "anonymous": false,
      "inputs": [
        {
          "indexed": true,
          "internalType": "address",
          "name": "token",
          "type": "address"
        },
        {
          "indexed": false,
          "internalType": "bool",
          "name": "supported",
          "type": "bool"
        }
      ],
      "name": "TokenSupported",
      "type": "event"
    },
    {
      "inputs": [
        {
          "internalType": "address",
          "name": "",
          "type": "address"
        },
        {
          "internalType": "address",
          "name": "",
          "type": "address"
        }
      ],
      "name": "agentPolicies",
      "outputs": [
        {
          "internalType": "address",
          "name": "agent",
          "type": "address"
        },
        {
          "internalType": "uint256",
          "name": "maxAmountPerTx",
          "type": "uint256"
        },
        {
          "internalType": "uint256",
          "name": "maxDailyAmount",
          "type": "uint256"
        },
        {
          "internalType": "uint256",
          "name": "dailySpent",
          "type": "uint256"
        },
        {
          "internalType": "uint256",
          "name": "lastResetTime",
          "type": "uint256"
        },
        {
          "internalType": "bool",
          "name": "isActive",
          "type": "bool"
        },
        {
          "internalType": "uint256",
          "name": "expiresAt",
          "type": "uint256"
        }
      ],
      "stateMutability": "view",
      "type": "function"
    },
    {
      "inputs": [
        {
          "internalType": "address",
          "name": "agent",
          "type": "address"
        },
        {
          "internalType": "uint256",
          "name": "maxAmountPerTx",
          "type": "uint256"
        },
        {
          "internalType": "uint256",
          "name": "maxDailyAmount",
          "type": "uint256"
        },
        {
          "internalType": "address[]",
          "name": "allowedRecipients",
          "type": "address[]"
        },
        {
          "internalType": "uint256",
          "name": "duration",
          "type": "uint256"
        }
      ],
      "name": "createAgent",
      "outputs": [],
      "stateMutability": "nonpayable",
      "type": "function"
    },
    {
      "inputs": [
        {
          "internalType": "address",
          "name": "owner",
          "type": "address"
        },
        {
          "internalType": "address",
          "name": "recipient",
          "type": "address"
        },
        {
          "internalType": "address",
          "name": "token",
          "type": "address"
        },
        {
          "internalType": "uint256",
          "name": "amount",
          "type": "uint256"
        },
        {
          "internalType": "string",
          "name": "memo",
          "type": "string"
        }
      ],
      "name": "executeAgentPayment",
      "outputs": [],
      "stateMutability": "nonpayable",
      "type": "function"
    },
    {
      "inputs": [
        {
          "internalType": "address",
          "name": "owner",
          "type": "address"
        },
        {
          "internalType": "address",
          "name": "recipient",
          "type": "address"
        },
        {
          "internalType": "address",
          "name": "token",
          "type": "address"
        },
        {
          "internalType": "uint256",
          "name": "amount",
          "type": "uint256"
        },
        {
          "internalType": "uint256",
          "name": "deadline",
          "type": "uint256"
        },
        {
          "internalType": "bytes",
          "name": "signature",
          "type": "bytes"
        }
      ],
      "name": "executeAgentPaymentWithSignature",
      "outputs": [],
      "stateMutability": "nonpayable",
      "type": "function"
    },
    {
      "inputs": [],
      "name": "feeBps",
      "outputs": [
        {
          "internalType": "uint256",
          "name": "",
          "type": "uint256"
        }
      ],
      "stateMutability": "view",
      "type": "function"
    },
    {
      "inputs": [
        {
          "internalType": "address",
          "name": "owner",
          "type": "address"
        },
        {
          "internalType": "address",
          "name": "agent",
          "type": "address"
        }
      ],
      "name": "getAgentPolicy",
      "outputs": [
        {
          "internalType": "address",
          "name": "agentAddr",
          "type": "address"
        },
        {
          "internalType": "uint256",
          "name": "maxAmountPerTx",
          "type": "uint256"
        },
        {
          "internalType": "uint256",
          "name": "maxDailyAmount",
          "type": "uint256"
        },
        {
          "internalType": "uint256",
          "name": "dailySpent",
          "type": "uint256"
        },
        {
          "internalType": "uint256",
          "name": "remainingDaily",
          "type": "uint256"
        },
        {
          "internalType": "bool",
          "name": "isActive",
          "type": "bool"
        },
        {
          "internalType": "uint256",
          "name": "expiresAt",
          "type": "uint256"
        },
        {
          "internalType": "uint256",
          "name": "allowedRecipientsCount",
          "type": "uint256"
        }
      ],
      "stateMutability": "view",
      "type": "function"
    },
    {
      "inputs": [
        {
          "internalType": "address",
          "name": "owner",
          "type": "address"
        },
        {
          "internalType": "address",
          "name": "agent",
          "type": "address"
        }
      ],
      "name": "getAllowedRecipients",
      "outputs": [
        {
          "internalType": "address[]",
          "name": "",
          "type": "address[]"
        }
      ],
      "stateMutability": "view",
      "type": "function"
    },
    {
      "inputs": [
        {
          "internalType": "address",
          "name": "user",
          "type": "address"
        }
      ],
      "name": "getUserAgents",
      "outputs": [
        {
          "internalType": "address[]",
          "name": "",
          "type": "address[]"
        }
      ],
      "stateMutability": "view",
      "type": "function"
    },
    {
      "inputs": [
        {
          "internalType": "address",
          "name": "owner",
          "type": "address"
        },
        {
          "internalType": "address",
          "name": "agent",
          "type": "address"
        }
      ],
      "name": "isAgentActive",
      "outputs": [
        {
          "internalType": "bool",
          "name": "",
          "type": "bool"
        }
      ],
      "stateMutability": "view",
      "type": "function"
    },
    {
      "inputs": [
        {
          "internalType": "address",
          "name": "",
          "type": "address"
        }
      ],
      "name": "nonces",
      "outputs": [
        {
          "internalType": "uint256",
          "name": "",
          "type": "uint256"
        }
      ],
      "stateMutability": "view",
      "type": "function"
    },
    {
      "inputs": [],
      "name": "owner",
      "outputs": [
        {
          "internalType": "address",
          "name": "",
          "type": "address"
        }
      ],
      "stateMutability": "view",
      "type": "function"
    },
    {
      "inputs": [],
      "name": "renounceOwnership",
      "outputs": [],
      "stateMutability": "nonpayable",
      "type": "function"
    },
    {
      "inputs": [
        {
          "internalType": "address",
          "name": "agent",
          "type": "address"
        }
      ],
      "name": "revokeAgent",
      "outputs": [],
      "stateMutability": "nonpayable",
      "type": "function"
    },
    {
      "inputs": [
        {
          "internalType": "uint256",
          "name": "_feeBps",
          "type": "uint256"
        }
      ],
      "name": "setFeeBps",
      "outputs": [],
      "stateMutability": "nonpayable",
      "type": "function"
    },
    {
      "inputs": [
        {
          "internalType": "address",
          "name": "token",
          "type": "address"
        },
        {
          "internalType": "bool",
          "name": "supported",
          "type": "bool"
        }
      ],
      "name": "setSupportedToken",
      "outputs": [],
      "stateMutability": "nonpayable",
      "type": "function"
    },
    {
      "inputs": [
        {
          "internalType": "address",
          "name": "_treasury",
          "type": "address"
        }
      ],
      "name": "setTreasury",
      "outputs": [],
      "stateMutability": "nonpayable",
      "type": "function"
    },
    {
      "inputs": [
        {
          "internalType": "address",
          "name": "",
          "type": "address"
        }
      ],
      "name": "supportedTokens",
      "outputs": [
        {
          "internalType": "bool",
          "name": "",
          "type": "bool"
        }
      ],
      "stateMutability": "view",
      "type": "function"
    },
    {
      "inputs": [
        {
          "internalType": "address",
          "name": "newOwner",
          "type": "address"
        }
      ],
      "name": "transferOwnership",
      "outputs": [],
      "stateMutability": "nonpayable",
      "type": "function"
    },
    {
      "inputs": [],
      "name": "treasury",
      "outputs": [
        {
          "internalType": "address",
          "name": "",
          "type": "address"
        }
      ],
      "stateMutability": "view",
      "type": "function"
    },
    {
      "inputs": [
        {
          "internalType": "address",
          "name": "agent",
          "type": "address"
        },
        {
          "internalType": "address[]",
          "name": "newRecipients",
          "type": "address[]"
        }
      ],
      "name": "updateAllowedRecipients",
      "outputs": [],
      "stateMutability": "nonpayable",
      "type": "function"
    },
    {
      "inputs": [
        {
          "internalType": "address",
          "name": "",
          "type": "address"
        },
        {
          "internalType": "uint256",
          "name": "",
          "type": "uint256"
        }
      ],
      "name": "userAgents",
      "outputs": [
        {
          "internalType": "address",
          "name": "",
          "type": "address"
        }
      ],
      "stateMutability": "view",
      "type": "function"
    }
  ],
  "bytecode": "0x608060405234801561001057600080fd5b50604051613be4380380613be483398181016040528101906100329190610268565b33600073ffffffffffffffffffffffffffffffffffffffff168173ffffffffffffffffffffffffffffffffffffffff16036100a55760006040517f1e4fbdf700000000000000000000000000000000000000000000000000000000815260040161009c91906102b7565b60405180910390fd5b6100b48161010b60201b60201c565b506001808190555081600660006101000a81548173ffffffffffffffffffffffffffffffffffffffff021916908373ffffffffffffffffffffffffffffffffffffffff1602179055508060078190555050506102d2565b60008060009054906101000a900473ffffffffffffffffffffffffffffffffffffffff169050816000806101000a81548173ffffffffffffffffffffffffffffffffffffffff021916908373ffffffffffffffffffffffffffffffffffffffff1602179055508173ffffffffffffffffffffffffffffffffffffffff168173ffffffffffffffffffffffffffffffffffffffff167f8be0079c531659141344cd1fd0a4f28419497f9722a3daafe3b4186f6b6457e060405160405180910390a35050565b600080fd5b600073ffffffffffffffffffffffffffffffffffffffff82169050919050565b60006101ff826101d4565b9050919050565b61020f816101f4565b811461021a57600080fd5b50565b60008151905061022c81610206565b92915050565b6000819050919050565b61024581610232565b811461025057600080fd5b50565b6000815190506102628161023c565b92915050565b6000806040838503121561027f5761027e6101cf565b5b600061028d8582860161021d565b925050602061029e85828601610253565b9150509250929050565b6102b1816101f4565b82525050565b60006020820190506102cc60008301846102a8565b92915050565b613903806102e16000396000f3fe608060405234801561001057600080fd5b50600436106101375760003560e01c8063715018a6116100b85780638da5cb5b1161007c5780638da5cb5b14610364578063b4218f9f14610382578063cb718aca146103b9578063e7986466146103d5578063f0f44260146103f1578063f2fde38b1461040d57610137565b8063715018a6146102d657806372c27b62146102e05780637da6ac0d146102fc5780637ecebe00146103185780638cf81f751461034857610137565b80634b72988b116100ff5780634b72988b1461020c57806351ca9ff91461022857806361d027b31461025857806368c4ac26146102765780637046796d146102a657610137565b806304ce36e11461013c5780630c7435b01461017257806324a9d8531461018e5780632e4d1274146101ac5780633d46519d146101dc575b600080fd5b610156600480360381019061015191906125f1565b610429565b6040516101699796959493929190612674565b60405180910390f35b61018c60048036038101906101879190612774565b6104a5565b005b6101966106ac565b6040516101a39190612823565b60405180910390f35b6101c660048036038101906101c191906125f1565b6106b2565b6040516101d3919061283e565b60405180910390f35b6101f660048036038101906101f19190612859565b610786565b6040516102039190612944565b60405180910390f35b610226600480360381019061022191906129bc565b610853565b005b610242600480360381019061023d9190612a1c565b610998565b60405161024f9190612a5c565b60405180910390f35b6102606109e6565b60405161026d9190612a5c565b60405180910390f35b610290600480360381019061028b9190612859565b610a0c565b60405161029d919061283e565b60405180910390f35b6102c060048036038101906102bb91906125f1565b610a2c565b6040516102cd9190612944565b60405180910390f35b6102de610b3a565b005b6102fa60048036038101906102f59190612a77565b610b4e565b005b61031660048036038101906103119190612859565b610ba5565b005b610332600480360381019061032d9190612859565b610cf1565b60405161033f9190612823565b60405180910390f35b610362600480360381019061035d9190612afa565b610d09565b005b61036c61124d565b6040516103799190612a5c565b60405180910390f35b61039c600480360381019061039791906125f1565b611276565b6040516103b0989796959493929190612b94565b60405180910390f35b6103d360048036038101906103ce9190612c12565b6113a7565b005b6103ef60048036038101906103ea9190612cd8565b611774565b005b61040b60048036038101906104069190612859565b611825565b005b61042760048036038101906104229190612859565b6118e0565b005b6003602052816000526040600020602052806000526040600020600091509150508060000160009054906101000a900473ffffffffffffffffffffffffffffffffffffffff16908060010154908060020154908060030154908060040154908060060160009054906101000a900460ff16908060070154905087565b6104ad611966565b824211156104f0576040517f08c379a00000000000000000000000000000000000000000000000000000000081526004016104e790612d75565b60405180910390fd5b60008733888888600560008e73ffffffffffffffffffffffffffffffffffffffff1673ffffffffffffffffffffffffffffffffffffffff168152602001908152602001600020548960405160200161054e9796959493929190612dfe565b60405160208183030381529060405280519060200120905060006105c784848080601f016020809104026020016040519081016040528093929190818152602001838380828437600081840152601f19601f820116905080830192505050505050506105b9846119ac565b6119e290919063ffffffff16565b90508873ffffffffffffffffffffffffffffffffffffffff168173ffffffffffffffffffffffffffffffffffffffff1614610637576040517f08c379a000000000000000000000000000000000000000000000000000000000815260040161062e90612ecb565b60405180910390fd5b600560008a73ffffffffffffffffffffffffffffffffffffffff1673ffffffffffffffffffffffffffffffffffffffff168152602001908152602001600020600081548092919061068790612f1a565b919050555061069989338a8a8a611a0e565b50506106a3611e26565b50505050505050565b60075481565b600080600360008573ffffffffffffffffffffffffffffffffffffffff1673ffffffffffffffffffffffffffffffffffffffff16815260200190815260200160002060008473ffffffffffffffffffffffffffffffffffffffff1673ffffffffffffffffffffffffffffffffffffffff16815260200190815260200160002090508060060160009054906101000a900460ff16610753576000915050610780565b6000816007015411801561076b575080600701544210155b1561077a576000915050610780565b60019150505b92915050565b6060600460008373ffffffffffffffffffffffffffffffffffffffff1673ffffffffffffffffffffffffffffffffffffffff16815260200190815260200160002080548060200260200160405190810160405280929190818152602001828054801561084757602002820191906000526020600020905b8160009054906101000a900473ffffffffffffffffffffffffffffffffffffffff1673ffffffffffffffffffffffffffffffffffffffff16815260200190600101908083116107fd575b50505050509050919050565b6000600360003373ffffffffffffffffffffffffffffffffffffffff1673ffffffffffffffffffffffffffffffffffffffff16815260200190815260200160002060008573ffffffffffffffffffffffffffffffffffffffff1673ffffffffffffffffffffffffffffffffffffffff16815260200190815260200160002090508060060160009054906101000a900460ff16610924576040517f08c379a000000000000000000000000000000000000000000000000000000000815260040161091b90612fae565b60405180910390fd5b82828260050191906109379291906124cc565b508373ffffffffffffffffffffffffffffffffffffffff163373ffffffffffffffffffffffffffffffffffffffff167fb66f55d71be00b7e995169c134ee7b7d198f0a9ef817b0048075170cb00ea69660405160405180910390a350505050565b600460205281600052604060002081815481106109b457600080fd5b906000526020600020016000915091509054906101000a900473ffffffffffffffffffffffffffffffffffffffff1681565b600660009054906101000a900473ffffffffffffffffffffffffffffffffffffffff1681565b60026020528060005260406000206000915054906101000a900460ff1681565b6060600360008473ffffffffffffffffffffffffffffffffffffffff1673ffffffffffffffffffffffffffffffffffffffff16815260200190815260200160002060008373ffffffffffffffffffffffffffffffffffffffff1673ffffffffffffffffffffffffffffffffffffffff168152602001908152602001600020600501805480602002602001604051908101604052809291908181526020018280548015610b2d57602002820191906000526020600020905b8160009054906101000a900473ffffffffffffffffffffffffffffffffffffffff1673ffffffffffffffffffffffffffffffffffffffff1681526020019060010190808311610ae3575b5050505050905092915050565b610b42611e2f565b610b4c6000611eb6565b565b610b56611e2f565b6101f4811115610b9b576040517f08c379a0000000000000000000000000000000000000000000000000000000008152600401610b929061301a565b60405180910390fd5b8060078190555050565b6000600360003373ffffffffffffffffffffffffffffffffffffffff1673ffffffffffffffffffffffffffffffffffffffff16815260200190815260200160002060008373ffffffffffffffffffffffffffffffffffffffff1673ffffffffffffffffffffffffffffffffffffffff16815260200190815260200160002090508060060160009054906101000a900460ff16610c76576040517f08c379a0000000000000000000000000000000000000000000000000000000008152600401610c6d90612fae565b60405180910390fd5b60008160060160006101000a81548160ff0219169083151502179055508173ffffffffffffffffffffffffffffffffffffffff163373ffffffffffffffffffffffffffffffffffffffff167f3855bc4f5f7ba28049e0abd622b6ffbbf63cb46e6b09593b9213c9fd38db5cad60405160405180910390a35050565b60056020528060005260406000206000915090505481565b610d11611966565b6000600360008873ffffffffffffffffffffffffffffffffffffffff1673ffffffffffffffffffffffffffffffffffffffff16815260200190815260200160002060003373ffffffffffffffffffffffffffffffffffffffff1673ffffffffffffffffffffffffffffffffffffffff16815260200190815260200160002090508060060160009054906101000a900460ff16610de2576040517f08c379a0000000000000000000000000000000000000000000000000000000008152600401610dd990612fae565b60405180910390fd5b600081600701541480610df85750806007015442105b610e37576040517f08c379a0000000000000000000000000000000000000000000000000000000008152600401610e2e90613086565b60405180910390fd5b600260008673ffffffffffffffffffffffffffffffffffffffff1673ffffffffffffffffffffffffffffffffffffffff16815260200190815260200160002060009054906101000a900460ff16610ec3576040517f08c379a0000000000000000000000000000000000000000000000000000000008152600401610eba906130f2565b60405180910390fd5b60008411610f06576040517f08c379a0000000000000000000000000000000000000000000000000000000008152600401610efd9061315e565b60405180910390fd5b8060010154841115610f4d576040517f08c379a0000000000000000000000000000000000000000000000000000000008152600401610f44906131ca565b60405180910390fd5b620151808160040154610f6091906131ea565b4210610f7a57600081600301819055504281600401819055505b8060020154848260030154610f8f91906131ea565b1115610fd0576040517f08c379a0000000000000000000000000000000000000000000000000000000008152600401610fc79061326a565b60405180910390fd5b6000816005018054905011156110bf576000805b826005018054905081101561107c578773ffffffffffffffffffffffffffffffffffffffff168360050182815481106110205761101f61328a565b5b9060005260206000200160009054906101000a900473ffffffffffffffffffffffffffffffffffffffff1673ffffffffffffffffffffffffffffffffffffffff160361106f576001915061107c565b8080600101915050610fe4565b50806110bd576040517f08c379a00000000000000000000000000000000000000000000000000000000081526004016110b490613305565b60405180910390fd5b505b6000612710600754866110d29190613325565b6110dc9190613396565b9050600081866110ec91906133c7565b90508583600301600082825461110291906131ea565b925050819055506111368930888a73ffffffffffffffffffffffffffffffffffffffff16611f7a909392919063ffffffff16565b600082111561118d5761118c600660009054906101000a900473ffffffffffffffffffffffffffffffffffffffff16838973ffffffffffffffffffffffffffffffffffffffff16611ffc9092919063ffffffff16565b5b6111b888828973ffffffffffffffffffffffffffffffffffffffff16611ffc9092919063ffffffff16565b8773ffffffffffffffffffffffffffffffffffffffff163373ffffffffffffffffffffffffffffffffffffffff168a73ffffffffffffffffffffffffffffffffffffffff167f294892599e21ecd30440dcbd435db97f6cf755b69f35b6bc99ca4b602f003a038a858a8a6040516112329493929190613448565b60405180910390a4505050611245611e26565b505050505050565b60008060009054906101000a900473ffffffffffffffffffffffffffffffffffffffff16905090565b6000806000806000806000806000600360008c73ffffffffffffffffffffffffffffffffffffffff1673ffffffffffffffffffffffffffffffffffffffff16815260200190815260200160002060008b73ffffffffffffffffffffffffffffffffffffffff1673ffffffffffffffffffffffffffffffffffffffff168152602001908152602001600020905060008160030154905062015180826004015461131e91906131ea565b421061132957600090505b8160000160009054906101000a900473ffffffffffffffffffffffffffffffffffffffff16826001015483600201548384866002015461136991906133c7565b8660060160009054906101000a900460ff16876007015488600501805490509950995099509950995099509950995050509295985092959890939650565b600073ffffffffffffffffffffffffffffffffffffffff168673ffffffffffffffffffffffffffffffffffffffff1603611416576040517f08c379a000000000000000000000000000000000000000000000000000000000815260040161140d906134d4565b60405180910390fd5b3373ffffffffffffffffffffffffffffffffffffffff168673ffffffffffffffffffffffffffffffffffffffff1603611484576040517f08c379a000000000000000000000000000000000000000000000000000000000815260040161147b90613540565b60405180910390fd5b600085116114c7576040517f08c379a00000000000000000000000000000000000000000000000000000000081526004016114be906135ac565b60405180910390fd5b8484101561150a576040517f08c379a000000000000000000000000000000000000000000000000000000000815260040161150190613618565b60405180910390fd5b6000600360003373ffffffffffffffffffffffffffffffffffffffff1673ffffffffffffffffffffffffffffffffffffffff16815260200190815260200160002060008873ffffffffffffffffffffffffffffffffffffffff1673ffffffffffffffffffffffffffffffffffffffff16815260200190815260200160002090508060060160009054906101000a900460ff1661164157600460003373ffffffffffffffffffffffffffffffffffffffff1673ffffffffffffffffffffffffffffffffffffffff168152602001908152602001600020879080600181540180825580915050600190039060005260206000200160009091909190916101000a81548173ffffffffffffffffffffffffffffffffffffffff021916908373ffffffffffffffffffffffffffffffffffffffff1602179055505b868160000160006101000a81548173ffffffffffffffffffffffffffffffffffffffff021916908373ffffffffffffffffffffffffffffffffffffffff16021790555085816001018190555084816002018190555083838260050191906116a99291906124cc565b5060018160060160006101000a81548160ff021916908315150217905550600082116116d65760006116e3565b81426116e291906131ea565b5b8160070181905550600081600301819055504281600401819055508673ffffffffffffffffffffffffffffffffffffffff163373ffffffffffffffffffffffffffffffffffffffff167f11184d3047545b9dd0e545b794a400b142ad085388c852ea39b4c48d973d89538888856007015460405161176393929190613638565b60405180910390a350505050505050565b61177c611e2f565b80600260008473ffffffffffffffffffffffffffffffffffffffff1673ffffffffffffffffffffffffffffffffffffffff16815260200190815260200160002060006101000a81548160ff0219169083151502179055508173ffffffffffffffffffffffffffffffffffffffff167fd86c88b4a367d9b81a6e00c9d3f7d01657bffef358fa8968c91c045ae99f0d5282604051611819919061283e565b60405180910390a25050565b61182d611e2f565b600073ffffffffffffffffffffffffffffffffffffffff168173ffffffffffffffffffffffffffffffffffffffff160361189c576040517f08c379a0000000000000000000000000000000000000000000000000000000008152600401611893906136bb565b60405180910390fd5b80600660006101000a81548173ffffffffffffffffffffffffffffffffffffffff021916908373ffffffffffffffffffffffffffffffffffffffff16021790555050565b6118e8611e2f565b600073ffffffffffffffffffffffffffffffffffffffff168173ffffffffffffffffffffffffffffffffffffffff160361195a5760006040517f1e4fbdf70000000000000000000000000000000000000000000000000000000081526004016119519190612a5c565b60405180910390fd5b61196381611eb6565b50565b6002600154036119a2576040517f3ee5aeb500000000000000000000000000000000000000000000000000000000815260040160405180910390fd5b6002600181905550565b60007f19457468657265756d205369676e6564204d6573736167653a0a33320000000060005281601c52603c6000209050919050565b6000806000806119f2868661207b565b925092509250611a0282826120d7565b82935050505092915050565b6000600360008773ffffffffffffffffffffffffffffffffffffffff1673ffffffffffffffffffffffffffffffffffffffff16815260200190815260200160002060008673ffffffffffffffffffffffffffffffffffffffff1673ffffffffffffffffffffffffffffffffffffffff16815260200190815260200160002090508060060160009054906101000a900460ff16611adf576040517f08c379a0000000000000000000000000000000000000000000000000000000008152600401611ad690612fae565b60405180910390fd5b600081600701541480611af55750806007015442105b611b34576040517f08c379a0000000000000000000000000000000000000000000000000000000008152600401611b2b90613086565b60405180910390fd5b600260008473ffffffffffffffffffffffffffffffffffffffff1673ffffffffffffffffffffffffffffffffffffffff16815260200190815260200160002060009054906101000a900460ff16611bc0576040517f08c379a0000000000000000000000000000000000000000000000000000000008152600401611bb7906130f2565b60405180910390fd5b600082118015611bd4575080600101548211155b611c13576040517f08c379a0000000000000000000000000000000000000000000000000000000008152600401611c0a90613727565b60405180910390fd5b620151808160040154611c2691906131ea565b4210611c4057600081600301819055504281600401819055505b8060020154828260030154611c5591906131ea565b1115611c96576040517f08c379a0000000000000000000000000000000000000000000000000000000008152600401611c8d9061326a565b60405180910390fd5b611ca0818561223b565b600061271060075484611cb39190613325565b611cbd9190613396565b905082826003016000828254611cd391906131ea565b92505081905550611d078730858773ffffffffffffffffffffffffffffffffffffffff16611f7a909392919063ffffffff16565b6000811115611d5e57611d5d600660009054906101000a900473ffffffffffffffffffffffffffffffffffffffff16828673ffffffffffffffffffffffffffffffffffffffff16611ffc9092919063ffffffff16565b5b611d94858285611d6e91906133c7565b8673ffffffffffffffffffffffffffffffffffffffff16611ffc9092919063ffffffff16565b8473ffffffffffffffffffffffffffffffffffffffff168673ffffffffffffffffffffffffffffffffffffffff168873ffffffffffffffffffffffffffffffffffffffff167f294892599e21ecd30440dcbd435db97f6cf755b69f35b6bc99ca4b602f003a03878588611e0791906133c7565b604051611e1592919061376d565b60405180910390a450505050505050565b60018081905550565b611e3761232e565b73ffffffffffffffffffffffffffffffffffffffff16611e5561124d565b73ffffffffffffffffffffffffffffffffffffffff1614611eb457611e7861232e565b6040517f118cdaa7000000000000000000000000000000000000000000000000000000008152600401611eab9190612a5c565b60405180910390fd5b565b60008060009054906101000a900473ffffffffffffffffffffffffffffffffffffffff169050816000806101000a81548173ffffffffffffffffffffffffffffffffffffffff021916908373ffffffffffffffffffffffffffffffffffffffff1602179055508173ffffffffffffffffffffffffffffffffffffffff168173ffffffffffffffffffffffffffffffffffffffff167f8be0079c531659141344cd1fd0a4f28419497f9722a3daafe3b4186f6b6457e060405160405180910390a35050565b611ff6848573ffffffffffffffffffffffffffffffffffffffff166323b872dd868686604051602401611faf939291906137a9565b604051602081830303815290604052915060e01b6020820180517bffffffffffffffffffffffffffffffffffffffffffffffffffffffff8381831617835250505050612336565b50505050565b612076838473ffffffffffffffffffffffffffffffffffffffff1663a9059cbb858560405160240161202f9291906137e0565b604051602081830303815290604052915060e01b6020820180517bffffffffffffffffffffffffffffffffffffffffffffffffffffffff8381831617835250505050612336565b505050565b600080600060418451036120c05760008060006020870151925060408701519150606087015160001a90506120b2888285856123d8565b9550955095505050506120d0565b60006002855160001b9250925092505b9250925092565b600060038111156120eb576120ea613809565b5b8260038111156120fe576120fd613809565b5b0315612237576001600381111561211857612117613809565b5b82600381111561212b5761212a613809565b5b03612162576040517ff645eedf00000000000000000000000000000000000000000000000000000000815260040160405180910390fd5b6002600381111561217657612175613809565b5b82600381111561218957612188613809565b5b036121ce578060001c6040517ffce698f70000000000000000000000000000000000000000000000000000000081526004016121c59190612823565b60405180910390fd5b6003808111156121e1576121e0613809565b5b8260038111156121f4576121f3613809565b5b0361223657806040517fd78bce0c00000000000000000000000000000000000000000000000000000000815260040161222d9190613851565b60405180910390fd5b5b5050565b60008260050180549050111561232a576000805b83600501805490508110156122e7578273ffffffffffffffffffffffffffffffffffffffff1684600501828154811061228b5761228a61328a565b5b9060005260206000200160009054906101000a900473ffffffffffffffffffffffffffffffffffffffff1673ffffffffffffffffffffffffffffffffffffffff16036122da57600191506122e7565b808060010191505061224f565b5080612328576040517f08c379a000000000000000000000000000000000000000000000000000000000815260040161231f90613305565b60405180910390fd5b505b5050565b600033905090565b600080602060008451602086016000885af180612359576040513d6000823e3d81fd5b3d925060005191505060008214612374576001811415612390565b60008473ffffffffffffffffffffffffffffffffffffffff163b145b156123d257836040517f5274afe70000000000000000000000000000000000000000000000000000000081526004016123c99190612a5c565b60405180910390fd5b50505050565b60008060007f7fffffffffffffffffffffffffffffff5d576e7357a4501ddfe92f46681b20a08460001c11156124185760006003859250925092506124c2565b60006001888888886040516000815260200160405260405161243d9493929190613888565b6020604051602081039080840390855afa15801561245f573d6000803e3d6000fd5b505050602060405103519050600073ffffffffffffffffffffffffffffffffffffffff168173ffffffffffffffffffffffffffffffffffffffff16036124b357600060016000801b935093509350506124c2565b8060008060001b935093509350505b9450945094915050565b82805482825590600052602060002090810192821561255b579160200282015b8281111561255a57823573ffffffffffffffffffffffffffffffffffffffff168260006101000a81548173ffffffffffffffffffffffffffffffffffffffff021916908373ffffffffffffffffffffffffffffffffffffffff160217905550916020019190600101906124ec565b5b509050612568919061256c565b5090565b5b8082111561258557600081600090555060010161256d565b5090565b600080fd5b600080fd5b600073ffffffffffffffffffffffffffffffffffffffff82169050919050565b60006125be82612593565b9050919050565b6125ce816125b3565b81146125d957600080fd5b50565b6000813590506125eb816125c5565b92915050565b6000806040838503121561260857612607612589565b5b6000612616858286016125dc565b9250506020612627858286016125dc565b9150509250929050565b61263a816125b3565b82525050565b6000819050919050565b61265381612640565b82525050565b60008115159050919050565b61266e81612659565b82525050565b600060e082019050612689600083018a612631565b612696602083018961264a565b6126a3604083018861264a565b6126b0606083018761264a565b6126bd608083018661264a565b6126ca60a0830185612665565b6126d760c083018461264a565b98975050505050505050565b6126ec81612640565b81146126f757600080fd5b50565b600081359050612709816126e3565b92915050565b600080fd5b600080fd5b600080fd5b60008083601f8401126127345761273361270f565b5b8235905067ffffffffffffffff81111561275157612750612714565b5b60208301915083600182028301111561276d5761276c612719565b5b9250929050565b600080600080600080600060c0888a03121561279357612792612589565b5b60006127a18a828b016125dc565b97505060206127b28a828b016125dc565b96505060406127c38a828b016125dc565b95505060606127d48a828b016126fa565b94505060806127e58a828b016126fa565b93505060a088013567ffffffffffffffff8111156128065761280561258e565b5b6128128a828b0161271e565b925092505092959891949750929550565b6000602082019050612838600083018461264a565b92915050565b60006020820190506128536000830184612665565b92915050565b60006020828403121561286f5761286e612589565b5b600061287d848285016125dc565b91505092915050565b600081519050919050565b600082825260208201905092915050565b6000819050602082019050919050565b6128bb816125b3565b82525050565b60006128cd83836128b2565b60208301905092915050565b6000602082019050919050565b60006128f182612886565b6128fb8185612891565b9350612906836128a2565b8060005b8381101561293757815161291e88826128c1565b9750612929836128d9565b92505060018101905061290a565b5085935050505092915050565b6000602082019050818103600083015261295e81846128e6565b905092915050565b60008083601f84011261297c5761297b61270f565b5b8235905067ffffffffffffffff81111561299957612998612714565b5b6020830191508360208202830111156129b5576129b4612719565b5b9250929050565b6000806000604084860312156129d5576129d4612589565b5b60006129e3868287016125dc565b935050602084013567ffffffffffffffff811115612a0457612a0361258e565b5b612a1086828701612966565b92509250509250925092565b60008060408385031215612a3357612a32612589565b5b6000612a41858286016125dc565b9250506020612a52858286016126fa565b9150509250929050565b6000602082019050612a716000830184612631565b92915050565b600060208284031215612a8d57612a8c612589565b5b6000612a9b848285016126fa565b91505092915050565b60008083601f840112612aba57612ab961270f565b5b8235905067ffffffffffffffff811115612ad757612ad6612714565b5b602083019150836001820283011115612af357612af2612719565b5b9250929050565b60008060008060008060a08789031215612b1757612b16612589565b5b6000612b2589828a016125dc565b9650506020612b3689828a016125dc565b9550506040612b4789828a016125dc565b9450506060612b5889828a016126fa565b935050608087013567ffffffffffffffff811115612b7957612b7861258e565b5b612b8589828a01612aa4565b92509250509295509295509295565b600061010082019050612baa600083018b612631565b612bb7602083018a61264a565b612bc4604083018961264a565b612bd1606083018861264a565b612bde608083018761264a565b612beb60a0830186612665565b612bf860c083018561264a565b612c0560e083018461264a565b9998505050505050505050565b60008060008060008060a08789031215612c2f57612c2e612589565b5b6000612c3d89828a016125dc565b9650506020612c4e89828a016126fa565b9550506040612c5f89828a016126fa565b945050606087013567ffffffffffffffff811115612c8057612c7f61258e565b5b612c8c89828a01612966565b93509350506080612c9f89828a016126fa565b9150509295509295509295565b612cb581612659565b8114612cc057600080fd5b50565b600081359050612cd281612cac565b92915050565b60008060408385031215612cef57612cee612589565b5b6000612cfd858286016125dc565b9250506020612d0e85828601612cc3565b9150509250929050565b600082825260208201905092915050565b7f5369676e61747572652065787069726564000000000000000000000000000000600082015250565b6000612d5f601183612d18565b9150612d6a82612d29565b602082019050919050565b60006020820190508181036000830152612d8e81612d52565b9050919050565b60008160601b9050919050565b6000612dad82612d95565b9050919050565b6000612dbf82612da2565b9050919050565b612dd7612dd2826125b3565b612db4565b82525050565b6000819050919050565b612df8612df382612640565b612ddd565b82525050565b6000612e0a828a612dc6565b601482019150612e1a8289612dc6565b601482019150612e2a8288612dc6565b601482019150612e3a8287612dc6565b601482019150612e4a8286612de7565b602082019150612e5a8285612de7565b602082019150612e6a8284612de7565b60208201915081905098975050505050505050565b7f496e76616c6964207369676e6174757265000000000000000000000000000000600082015250565b6000612eb5601183612d18565b9150612ec082612e7f565b602082019050919050565b60006020820190508181036000830152612ee481612ea8565b9050919050565b7f4e487b7100000000000000000000000000000000000000000000000000000000600052601160045260246000fd5b6000612f2582612640565b91507fffffffffffffffffffffffffffffffffffffffffffffffffffffffffffffffff8203612f5757612f56612eeb565b5b600182019050919050565b7f4167656e74206e6f742061637469766500000000000000000000000000000000600082015250565b6000612f98601083612d18565b9150612fa382612f62565b602082019050919050565b60006020820190508181036000830152612fc781612f8b565b9050919050565b7f46656520746f6f20686967680000000000000000000000000000000000000000600082015250565b6000613004600c83612d18565b915061300f82612fce565b602082019050919050565b6000602082019050818103600083015261303381612ff7565b9050919050565b7f506f6c6963792065787069726564000000000000000000000000000000000000600082015250565b6000613070600e83612d18565b915061307b8261303a565b602082019050919050565b6000602082019050818103600083015261309f81613063565b9050919050565b7f546f6b656e206e6f7420737570706f7274656400000000000000000000000000600082015250565b60006130dc601383612d18565b91506130e7826130a6565b602082019050919050565b6000602082019050818103600083015261310b816130cf565b9050919050565b7f416d6f756e74206d757374206265203e20300000000000000000000000000000600082015250565b6000613148601283612d18565b915061315382613112565b602082019050919050565b600060208201905081810360008301526131778161313b565b9050919050565b7f45786365656473207065722d7478206c696d6974000000000000000000000000600082015250565b60006131b4601483612d18565b91506131bf8261317e565b602082019050919050565b600060208201905081810360008301526131e3816131a7565b9050919050565b60006131f582612640565b915061320083612640565b925082820190508082111561321857613217612eeb565b5b92915050565b7f45786365656473206461696c79206c696d697400000000000000000000000000600082015250565b6000613254601383612d18565b915061325f8261321e565b602082019050919050565b6000602082019050818103600083015261328381613247565b9050919050565b7f4e487b7100000000000000000000000000000000000000000000000000000000600052603260045260246000fd5b7f526563697069656e74206e6f742077686974656c697374656400000000000000600082015250565b60006132ef601983612d18565b91506132fa826132b9565b602082019050919050565b6000602082019050818103600083015261331e816132e2565b9050919050565b600061333082612640565b915061333b83612640565b925082820261334981612640565b915082820484148315176133605761335f612eeb565b5b5092915050565b7f4e487b7100000000000000000000000000000000000000000000000000000000600052601260045260246000fd5b60006133a182612640565b91506133ac83612640565b9250826133bc576133bb613367565b5b828204905092915050565b60006133d282612640565b91506133dd83612640565b92508282039050818111156133f5576133f4612eeb565b5b92915050565b82818337600083830152505050565b6000601f19601f8301169050919050565b60006134278385612d18565b93506134348385846133fb565b61343d8361340a565b840190509392505050565b600060608201905061345d6000830187612631565b61346a602083018661264a565b818103604083015261347d81848661341b565b905095945050505050565b7f496e76616c6964206167656e7400000000000000000000000000000000000000600082015250565b60006134be600d83612d18565b91506134c982613488565b602082019050919050565b600060208201905081810360008301526134ed816134b1565b9050919050565b7f43616e6e6f74206265206f776e206167656e7400000000000000000000000000600082015250565b600061352a601383612d18565b9150613535826134f4565b602082019050919050565b600060208201905081810360008301526135598161351d565b9050919050565b7f4d617820616d6f756e74206d757374206265203e203000000000000000000000600082015250565b6000613596601683612d18565b91506135a182613560565b602082019050919050565b600060208201905081810360008301526135c581613589565b9050919050565b7f4461696c79206d757374203e3d20706572207478000000000000000000000000600082015250565b6000613602601483612d18565b915061360d826135cc565b602082019050919050565b60006020820190508181036000830152613631816135f5565b9050919050565b600060608201905061364d600083018661264a565b61365a602083018561264a565b613667604083018461264a565b949350505050565b7f496e76616c696420747265617375727900000000000000000000000000000000600082015250565b60006136a5601083612d18565b91506136b08261366f565b602082019050919050565b600060208201905081810360008301526136d481613698565b9050919050565b7f496e76616c696420616d6f756e74000000000000000000000000000000000000600082015250565b6000613711600e83612d18565b915061371c826136db565b602082019050919050565b6000602082019050818103600083015261374081613704565b9050919050565b50565b6000613757600083612d18565b915061376282613747565b600082019050919050565b60006060820190506137826000830185612631565b61378f602083018461264a565b81810360408301526137a08161374a565b90509392505050565b60006060820190506137be6000830186612631565b6137cb6020830185612631565b6137d8604083018461264a565b949350505050565b60006040820190506137f56000830185612631565b613802602083018461264a565b9392505050565b7f4e487b7100000000000000000000000000000000000000000000000000000000600052602160045260246000fd5b6000819050919050565b61384b81613838565b82525050565b60006020820190506138666000830184613842565b92915050565b600060ff82169050919050565b6138828161386c565b82525050565b600060808201905061389d6000830187613842565b6138aa6020830186613879565b6138b76040830185613842565b6138c46060830184613842565b9594505050505056fea26469706673582212201b0991bf3fb79020fe23c4c5d99384131ab57041af81d496980be5d41fa2d4f864736f6c634300081b0033",
  "linkReferences": {},
  "deployedLinkReferences": {}
}